:100000000C9434000C943E000C943E000C943E0082
:100010000C943E000C943E000C943E000C943E0068
:100020000C943E000C943E000C943E000C943E0058
:100030000C943E000C943E000C943E000C943E0048
:100040000C943E000C943E000C943E000C943E0038
:100050000C943E000C943E000C943E000C943E0028
:100060000C943E000C943E0011241FBECFEFD8E04C
:10007000DEBFCDBF0E9440000C9458000C940000DD
:10008000259A2D9A2AEA36EE86E991E021503040F1
:1000900080409040D9F700002D982AEA36EE86E994
:1000A00091E02150304080409040D9F70000E9CFE6
:0400B000F894FFCFF2
:00000001FF
