:100000000C9434000C943E000C943E000C943E0082
:100010000C943E000C943E000C943E000C943E0068
:100020000C943E000C943E000C943E000C943E0058
:100030000C943E000C943E000C943E000C943E0048
:100040000C943E000C943E000C943E000C943E0038
:100050000C943E000C943E000C943E000C943E0028
:100060000C943E000C943E0011241FBECFEFD8E04C
:10007000DEBFCDBF0E9440000C945C000C940000D9
:10008000259A52985A9A90E081E04A99FDCF8130A2
:10009000E1F7292F282791110DC02D9A3FEF89E60E
:1000A00098E1315080409040E1F700C0000080E0CE
:0C00B000922FEBCF2D98F2CFF894FFCFE9
:00000001FF
